{
  "_format": "hh-sol-artifact-1",
  "contractName": "Voting",
  "sourceName": "contracts/Voting.sol",
  "abi": [
    {
      "inputs": [
        {
          "internalType": "string[]",
          "name": "_candidateNames",
          "type": "string[]"
        },
        {
          "internalType": "uint256",
          "name": "_durationInMinutes",
          "type": "uint256"
        }
      ],
      "stateMutability": "nonpayable",
      "type": "constructor"
    },
    {
      "anonymous": false,
      "inputs": [
        {
          "indexed": true,
          "internalType": "address",
          "name": "voter",
          "type": "address"
        },
        {
          "indexed": true,
          "internalType": "uint256",
          "name": "candidateIndex",
          "type": "uint256"
        },
        {
          "indexed": false,
          "internalType": "string",
          "name": "candidateName",
          "type": "string"
        }
      ],
      "name": "VoteCast",
      "type": "event"
    },
    {
      "anonymous": false,
      "inputs": [
        {
          "indexed": false,
          "internalType": "string",
          "name": "winnerName",
          "type": "string"
        },
        {
          "indexed": false,
          "internalType": "uint256",
          "name": "winningVoteCount",
          "type": "uint256"
        }
      ],
      "name": "VotingEnded",
      "type": "event"
    },
    {
      "inputs": [
        {
          "internalType": "string",
          "name": "_name",
          "type": "string"
        }
      ],
      "name": "addCandidate",
      "outputs": [],
      "stateMutability": "nonpayable",
      "type": "function"
    },
    {
      "inputs": [
        {
          "internalType": "uint256",
          "name": "",
          "type": "uint256"
        }
      ],
      "name": "candidates",
      "outputs": [
        {
          "internalType": "string",
          "name": "name",
          "type": "string"
        },
        {
          "internalType": "uint256",
          "name": "voteCount",
          "type": "uint256"
        }
      ],
      "stateMutability": "view",
      "type": "function"
    },
    {
      "inputs": [],
      "name": "endVoting",
      "outputs": [],
      "stateMutability": "nonpayable",
      "type": "function"
    },
    {
      "inputs": [],
      "name": "getAllVotesOfCandiates",
      "outputs": [
        {
          "components": [
            {
              "internalType": "string",
              "name": "name",
              "type": "string"
            },
            {
              "internalType": "uint256",
              "name": "voteCount",
              "type": "uint256"
            }
          ],
          "internalType": "struct Voting.Candidate[]",
          "name": "",
          "type": "tuple[]"
        }
      ],
      "stateMutability": "view",
      "type": "function"
    },
    {
      "inputs": [],
      "name": "getRemainingTime",
      "outputs": [
        {
          "internalType": "uint256",
          "name": "",
          "type": "uint256"
        }
      ],
      "stateMutability": "view",
      "type": "function"
    },
    {
      "inputs": [],
      "name": "getVotingStatus",
      "outputs": [
        {
          "internalType": "bool",
          "name": "",
          "type": "bool"
        }
      ],
      "stateMutability": "view",
      "type": "function"
    },
    {
      "inputs": [],
      "name": "getWinner",
      "outputs": [
        {
          "internalType": "string",
          "name": "winnerName",
          "type": "string"
        },
        {
          "internalType": "uint256",
          "name": "winningVoteCount",
          "type": "uint256"
        }
      ],
      "stateMutability": "view",
      "type": "function"
    },
    {
      "inputs": [],
      "name": "isEnded",
      "outputs": [
        {
          "internalType": "bool",
          "name": "",
          "type": "bool"
        }
      ],
      "stateMutability": "view",
      "type": "function"
    },
    {
      "inputs": [],
      "name": "owner",
      "outputs": [
        {
          "internalType": "address",
          "name": "",
          "type": "address"
        }
      ],
      "stateMutability": "view",
      "type": "function"
    },
    {
      "inputs": [
        {
          "internalType": "uint256",
          "name": "_candidateIndex",
          "type": "uint256"
        }
      ],
      "name": "vote",
      "outputs": [],
      "stateMutability": "nonpayable",
      "type": "function"
    },
    {
      "inputs": [
        {
          "internalType": "address",
          "name": "",
          "type": "address"
        }
      ],
      "name": "voters",
      "outputs": [
        {
          "internalType": "bool",
          "name": "",
          "type": "bool"
        }
      ],
      "stateMutability": "view",
      "type": "function"
    },
    {
      "inputs": [],
      "name": "votingEnd",
      "outputs": [
        {
          "internalType": "uint256",
          "name": "",
          "type": "uint256"
        }
      ],
      "stateMutability": "view",
      "type": "function"
    },
    {
      "inputs": [],
      "name": "votingStart",
      "outputs": [
        {
          "internalType": "uint256",
          "name": "",
          "type": "uint256"
        }
      ],
      "stateMutability": "view",
      "type": "function"
    }
  ],
  "bytecode": "0x60806040523480156200001157600080fd5b506040516200251d3803806200251d8339818101604052810190620000379190620004a6565b60008251116200007e576040517f08c379a000000000000000000000000000000000000000000000000000000000815260040162000075906200056d565b60405180910390fd5b60008111620000c4576040517f08c379a0000000000000000000000000000000000000000000000000000000008152600401620000bb90620005df565b60405180910390fd5b60005b8251811015620001695760006040518060400160405280858481518110620000f457620000f362000601565b5b6020026020010151815260200160008152509080600181540180825580915050600190039060005260206000209060020201600090919091909150600082015181600001908162000146919062000871565b506020820151816001015550508080620001609062000987565b915050620000c7565b5033600160006101000a81548173ffffffffffffffffffffffffffffffffffffffff021916908373ffffffffffffffffffffffffffffffffffffffff16021790555042600381905550603c81620001c19190620009d4565b42620001ce919062000a1f565b600481905550505062000a5a565b6000604051905090565b600080fd5b600080fd5b600080fd5b6000601f19601f8301169050919050565b7f4e487b7100000000000000000000000000000000000000000000000000000000600052604160045260246000fd5b6200024082620001f5565b810181811067ffffffffffffffff8211171562000262576200026162000206565b5b80604052505050565b600062000277620001dc565b905062000285828262000235565b919050565b600067ffffffffffffffff821115620002a857620002a762000206565b5b602082029050602081019050919050565b600080fd5b600080fd5b600067ffffffffffffffff821115620002e157620002e062000206565b5b620002ec82620001f5565b9050602081019050919050565b60005b8381101562000319578082015181840152602081019050620002fc565b60008484015250505050565b60006200033c6200033684620002c3565b6200026b565b9050828152602081018484840111156200035b576200035a620002be565b5b62000368848285620002f9565b509392505050565b600082601f830112620003885762000387620001f0565b5b81516200039a84826020860162000325565b91505092915050565b6000620003ba620003b4846200028a565b6200026b565b90508083825260208201905060208402830185811115620003e057620003df620002b9565b5b835b818110156200042e57805167ffffffffffffffff811115620004095762000408620001f0565b5b80860162000418898262000370565b85526020850194505050602081019050620003e2565b5050509392505050565b600082601f83011262000450576200044f620001f0565b5b815162000462848260208601620003a3565b91505092915050565b6000819050919050565b62000480816200046b565b81146200048c57600080fd5b50565b600081519050620004a08162000475565b92915050565b60008060408385031215620004c057620004bf620001e6565b5b600083015167ffffffffffffffff811115620004e157620004e0620001eb565b5b620004ef8582860162000438565b925050602062000502858286016200048f565b9150509250929050565b600082825260208201905092915050565b7f4d7573742068617665206174206c65617374206f6e652063616e646964617465600082015250565b6000620005556020836200050c565b915062000562826200051d565b602082019050919050565b60006020820190508181036000830152620005888162000546565b9050919050565b7f4475726174696f6e206d75737420626520706f73697469766500000000000000600082015250565b6000620005c76019836200050c565b9150620005d4826200058f565b602082019050919050565b60006020820190508181036000830152620005fa81620005b8565b9050919050565b7f4e487b7100000000000000000000000000000000000000000000000000000000600052603260045260246000fd5b600081519050919050565b7f4e487b7100000000000000000000000000000000000000000000000000000000600052602260045260246000fd5b600060028204905060018216806200068357607f821691505b6020821081036200069957620006986200063b565b5b50919050565b60008190508160005260206000209050919050565b60006020601f8301049050919050565b600082821b905092915050565b600060088302620007037fffffffffffffffffffffffffffffffffffffffffffffffffffffffffffffffff82620006c4565b6200070f8683620006c4565b95508019841693508086168417925050509392505050565b6000819050919050565b6000620007526200074c62000746846200046b565b62000727565b6200046b565b9050919050565b6000819050919050565b6200076e8362000731565b620007866200077d8262000759565b848454620006d1565b825550505050565b600090565b6200079d6200078e565b620007aa81848462000763565b505050565b5b81811015620007d257620007c660008262000793565b600181019050620007b0565b5050565b601f8211156200082157620007eb816200069f565b620007f684620006b4565b8101602085101562000806578190505b6200081e6200081585620006b4565b830182620007af565b50505b505050565b600082821c905092915050565b6000620008466000198460080262000826565b1980831691505092915050565b600062000861838362000833565b9150826002028217905092915050565b6200087c8262000630565b67ffffffffffffffff81111562000898576200089762000206565b5b620008a482546200066a565b620008b1828285620007d6565b600060209050601f831160018114620008e95760008415620008d4578287015190505b620008e0858262000853565b86555062000950565b601f198416620008f9866200069f565b60005b828110156200092357848901518255600182019150602085019450602081019050620008fc565b868310156200094357848901516200093f601f89168262000833565b8355505b6001600288020188555050505b505050505050565b7f4e487b7100000000000000000000000000000000000000000000000000000000600052601160045260246000fd5b600062000994826200046b565b91507fffffffffffffffffffffffffffffffffffffffffffffffffffffffffffffffff8203620009c957620009c862000958565b5b600182019050919050565b6000620009e1826200046b565b9150620009ee836200046b565b9250828202620009fe816200046b565b9150828204841483151762000a185762000a1762000958565b5b5092915050565b600062000a2c826200046b565b915062000a39836200046b565b925082820190508082111562000a545762000a5362000958565b5b92915050565b611ab38062000a6a6000396000f3fe608060405234801561001057600080fd5b50600436106100cf5760003560e01c806385a386351161008c578063a3ec138d11610066578063a3ec138d146101f2578063a4fd6f5614610222578063c3403ddf14610240578063efb98bcf1461024a576100cf565b806385a38635146101975780638da5cb5b146101b55780638e7ea5b2146101d3576100cf565b80630121b93f146100d4578063101158af146100f05780633477ee2e1461010e578063462e91ec1461013f5780634d6bda5f1461015b578063581c281c14610179575b600080fd5b6100ee60048036038101906100e99190610d9f565b610268565b005b6100f8610489565b6040516101059190610ddb565b60405180910390f35b61012860048036038101906101239190610d9f565b61048f565b604051610136929190610e86565b60405180910390f35b61015960048036038101906101549190610feb565b61054b565b005b6101636106c9565b604051610170919061118c565b60405180910390f35b6101816107c4565b60405161018e91906111c9565b60405180910390f35b61019f6107de565b6040516101ac9190610ddb565b60405180910390f35b6101bd6107e4565b6040516101ca9190611225565b60405180910390f35b6101db61080a565b6040516101e9929190610e86565b60405180910390f35b61020c6004803603810190610207919061126c565b6109de565b60405161021991906111c9565b60405180910390f35b61022a6109fe565b60405161023791906111c9565b60405180910390f35b610248610a11565b005b610252610b84565b60405161025f9190610ddb565b60405180910390f35b60045442106102ac576040517f08c379a00000000000000000000000000000000000000000000000000000000081526004016102a3906112e5565b60405180910390fd5b600260003373ffffffffffffffffffffffffffffffffffffffff1673ffffffffffffffffffffffffffffffffffffffff16815260200190815260200160002060009054906101000a900460ff1615610339576040517f08c379a000000000000000000000000000000000000000000000000000000000815260040161033090611351565b60405180910390fd5b6000805490508110610380576040517f08c379a0000000000000000000000000000000000000000000000000000000008152600401610377906113bd565b60405180910390fd5b60008181548110610394576103936113dd565b5b906000526020600020906002020160010160008154809291906103b69061143b565b91905055506001600260003373ffffffffffffffffffffffffffffffffffffffff1673ffffffffffffffffffffffffffffffffffffffff16815260200190815260200160002060006101000a81548160ff021916908315150217905550803373ffffffffffffffffffffffffffffffffffffffff167f41aeb55eef25a94e94aeac300a628610ffa8099eb2bf991b3ae640d42233467d600084815481106104605761045f6113dd565b5b906000526020600020906002020160000160405161047e919061157c565b60405180910390a350565b60035481565b6000818154811061049f57600080fd5b90600052602060002090600202016000915090508060000180546104c2906114b2565b80601f01602080910402602001604051908101604052809291908181526020018280546104ee906114b2565b801561053b5780601f106105105761010080835404028352916020019161053b565b820191906000526020600020905b81548152906001019060200180831161051e57829003601f168201915b5050505050908060010154905082565b600160009054906101000a900473ffffffffffffffffffffffffffffffffffffffff1673ffffffffffffffffffffffffffffffffffffffff163373ffffffffffffffffffffffffffffffffffffffff16146105db576040517f08c379a00000000000000000000000000000000000000000000000000000000081526004016105d290611610565b60405180910390fd5b600454421061061f576040517f08c379a0000000000000000000000000000000000000000000000000000000008152600401610616906112e5565b60405180910390fd5b6000815111610663576040517f08c379a000000000000000000000000000000000000000000000000000000000815260040161065a9061167c565b60405180910390fd5b600060405180604001604052808381526020016000815250908060018154018082558091505060019003906000526020600020906002020160009091909190915060008201518160000190816106b99190611833565b5060208201518160010155505050565b60606000805480602002602001604051908101604052809291908181526020016000905b828210156107bb5783829060005260206000209060020201604051806040016040529081600082018054610720906114b2565b80601f016020809104026020016040519081016040528092919081815260200182805461074c906114b2565b80156107995780601f1061076e57610100808354040283529160200191610799565b820191906000526020600020905b81548152906001019060200180831161077c57829003601f168201915b50505050508152602001600182015481525050815260200190600101906106ed565b50505050905090565b600060035442101580156107d9575060045442105b905090565b60045481565b600160009054906101000a900473ffffffffffffffffffffffffffffffffffffffff1681565b60606000600454421015610853576040517f08c379a000000000000000000000000000000000000000000000000000000000815260040161084a90611951565b60405180910390fd5b600080805490501161089a576040517f08c379a0000000000000000000000000000000000000000000000000000000008152600401610891906119bd565b60405180910390fd5b6000905060405180602001604052806000815250915060005b6000805490508110156109d95781600082815481106108d5576108d46113dd565b5b90600052602060002090600202016001015411156109c65760008181548110610901576109006113dd565b5b906000526020600020906002020160010154915060008181548110610929576109286113dd565b5b90600052602060002090600202016000018054610945906114b2565b80601f0160208091040260200160405190810160405280929190818152602001828054610971906114b2565b80156109be5780601f10610993576101008083540402835291602001916109be565b820191906000526020600020905b8154815290600101906020018083116109a157829003601f168201915b505050505092505b80806109d19061143b565b9150506108b3565b509091565b60026020528060005260406000206000915054906101000a900460ff1681565b600560009054906101000a900460ff1681565b600160009054906101000a900473ffffffffffffffffffffffffffffffffffffffff1673ffffffffffffffffffffffffffffffffffffffff163373ffffffffffffffffffffffffffffffffffffffff1614610aa1576040517f08c379a0000000000000000000000000000000000000000000000000000000008152600401610a9890611610565b60405180910390fd5b600560009054906101000a900460ff1615610af1576040517f08c379a0000000000000000000000000000000000000000000000000000000008152600401610ae890611a29565b60405180910390fd5b6001600560006101000a81548160ff02191690831515021790555042600481905550600080610b1e6107c4565b610b2f57610b2a610bbf565b610b43565b600060405180602001604052806000815250905b915091507f40ab9e7167b6bca5d94e856632cb8a3735fb7a083d90801dd855e869b430b3ee8282604051610b78929190610e86565b60405180910390a15050565b6000600354421015610b995760009050610bbc565b6004544210610bab5760009050610bbc565b42600454610bb99190611a49565b90505b90565b606060008060008054905011610c0a576040517f08c379a0000000000000000000000000000000000000000000000000000000008152600401610c01906119bd565b60405180910390fd5b60008060405180602001604052806000815250905060005b600080549050811015610d48578260008281548110610c4457610c436113dd565b5b9060005260206000209060020201600101541115610d355760008181548110610c7057610c6f6113dd565b5b906000526020600020906002020160010154925060008181548110610c9857610c976113dd565b5b90600052602060002090600202016000018054610cb4906114b2565b80601f0160208091040260200160405190810160405280929190818152602001828054610ce0906114b2565b8015610d2d5780601f10610d0257610100808354040283529160200191610d2d565b820191906000526020600020905b815481529060010190602001808311610d1057829003601f168201915b505050505091505b8080610d409061143b565b915050610c22565b5080829350935050509091565b6000604051905090565b600080fd5b600080fd5b6000819050919050565b610d7c81610d69565b8114610d8757600080fd5b50565b600081359050610d9981610d73565b92915050565b600060208284031215610db557610db4610d5f565b5b6000610dc384828501610d8a565b91505092915050565b610dd581610d69565b82525050565b6000602082019050610df06000830184610dcc565b92915050565b600081519050919050565b600082825260208201905092915050565b60005b83811015610e30578082015181840152602081019050610e15565b60008484015250505050565b6000601f19601f8301169050919050565b6000610e5882610df6565b610e628185610e01565b9350610e72818560208601610e12565b610e7b81610e3c565b840191505092915050565b60006040820190508181036000830152610ea08185610e4d565b9050610eaf6020830184610dcc565b9392505050565b600080fd5b600080fd5b7f4e487b7100000000000000000000000000000000000000000000000000000000600052604160045260246000fd5b610ef882610e3c565b810181811067ffffffffffffffff82111715610f1757610f16610ec0565b5b80604052505050565b6000610f2a610d55565b9050610f368282610eef565b919050565b600067ffffffffffffffff821115610f5657610f55610ec0565b5b610f5f82610e3c565b9050602081019050919050565b82818337600083830152505050565b6000610f8e610f8984610f3b565b610f20565b905082815260208101848484011115610faa57610fa9610ebb565b5b610fb5848285610f6c565b509392505050565b600082601f830112610fd257610fd1610eb6565b5b8135610fe2848260208601610f7b565b91505092915050565b60006020828403121561100157611000610d5f565b5b600082013567ffffffffffffffff81111561101f5761101e610d64565b5b61102b84828501610fbd565b91505092915050565b600081519050919050565b600082825260208201905092915050565b6000819050602082019050919050565b600082825260208201905092915050565b600061107c82610df6565b6110868185611060565b9350611096818560208601610e12565b61109f81610e3c565b840191505092915050565b6110b381610d69565b82525050565b600060408301600083015184820360008601526110d68282611071565b91505060208301516110eb60208601826110aa565b508091505092915050565b600061110283836110b9565b905092915050565b6000602082019050919050565b600061112282611034565b61112c818561103f565b93508360208202850161113e85611050565b8060005b8581101561117a578484038952815161115b85826110f6565b94506111668361110a565b925060208a01995050600181019050611142565b50829750879550505050505092915050565b600060208201905081810360008301526111a68184611117565b905092915050565b60008115159050919050565b6111c3816111ae565b82525050565b60006020820190506111de60008301846111ba565b92915050565b600073ffffffffffffffffffffffffffffffffffffffff82169050919050565b600061120f826111e4565b9050919050565b61121f81611204565b82525050565b600060208201905061123a6000830184611216565b92915050565b61124981611204565b811461125457600080fd5b50565b60008135905061126681611240565b92915050565b60006020828403121561128257611281610d5f565b5b600061129084828501611257565b91505092915050565b7f566f74696e672068617320656e64656400000000000000000000000000000000600082015250565b60006112cf601083610e01565b91506112da82611299565b602082019050919050565b600060208201905081810360008301526112fe816112c2565b9050919050565b7f596f75206861766520616c726561647920766f7465642e000000000000000000600082015250565b600061133b601783610e01565b915061134682611305565b602082019050919050565b6000602082019050818103600083015261136a8161132e565b9050919050565b7f496e76616c69642063616e64696461746520696e6465782e0000000000000000600082015250565b60006113a7601883610e01565b91506113b282611371565b602082019050919050565b600060208201905081810360008301526113d68161139a565b9050919050565b7f4e487b7100000000000000000000000000000000000000000000000000000000600052603260045260246000fd5b7f4e487b7100000000000000000000000000000000000000000000000000000000600052601160045260246000fd5b600061144682610d69565b91507fffffffffffffffffffffffffffffffffffffffffffffffffffffffffffffffff82036114785761147761140c565b5b600182019050919050565b7f4e487b7100000000000000000000000000000000000000000000000000000000600052602260045260246000fd5b600060028204905060018216806114ca57607f821691505b6020821081036114dd576114dc611483565b5b50919050565b60008190508160005260206000209050919050565b60008154611505816114b2565b61150f8186610e01565b9450600182166000811461152a576001811461154057611573565b60ff198316865281151560200286019350611573565b611549856114e3565b60005b8381101561156b5781548189015260018201915060208101905061154c565b808801955050505b50505092915050565b6000602082019050818103600083015261159681846114f8565b905092915050565b7f4f6e6c79206f776e65722063616e2063616c6c20746869732066756e6374696f60008201527f6e00000000000000000000000000000000000000000000000000000000000000602082015250565b60006115fa602183610e01565b91506116058261159e565b604082019050919050565b60006020820190508181036000830152611629816115ed565b9050919050565b7f4e616d652063616e6e6f7420626520656d707479000000000000000000000000600082015250565b6000611666601483610e01565b915061167182611630565b602082019050919050565b6000602082019050818103600083015261169581611659565b9050919050565b60006020601f8301049050919050565b600082821b905092915050565b6000600883026116e97fffffffffffffffffffffffffffffffffffffffffffffffffffffffffffffffff826116ac565b6116f386836116ac565b95508019841693508086168417925050509392505050565b6000819050919050565b600061173061172b61172684610d69565b61170b565b610d69565b9050919050565b6000819050919050565b61174a83611715565b61175e61175682611737565b8484546116b9565b825550505050565b600090565b611773611766565b61177e818484611741565b505050565b5b818110156117a25761179760008261176b565b600181019050611784565b5050565b601f8211156117e7576117b8816114e3565b6117c18461169c565b810160208510156117d0578190505b6117e46117dc8561169c565b830182611783565b50505b505050565b600082821c905092915050565b600061180a600019846008026117ec565b1980831691505092915050565b600061182383836117f9565b9150826002028217905092915050565b61183c82610df6565b67ffffffffffffffff81111561185557611854610ec0565b5b61185f82546114b2565b61186a8282856117a6565b600060209050601f83116001811461189d576000841561188b578287015190505b6118958582611817565b8655506118fd565b601f1984166118ab866114e3565b60005b828110156118d3578489015182556001820191506020850194506020810190506118ae565b868310156118f057848901516118ec601f8916826117f9565b8355505b6001600288020188555050505b505050505050565b7f566f74696e6720686173206e6f7420656e646564207965740000000000000000600082015250565b600061193b601883610e01565b915061194682611905565b602082019050919050565b6000602082019050818103600083015261196a8161192e565b9050919050565b7f4e6f2063616e6469646174657300000000000000000000000000000000000000600082015250565b60006119a7600d83610e01565b91506119b282611971565b602082019050919050565b600060208201905081810360008301526119d68161199a565b9050919050565b7f566f74696e6720616c726561647920656e646564000000000000000000000000600082015250565b6000611a13601483610e01565b9150611a1e826119dd565b602082019050919050565b60006020820190508181036000830152611a4281611a06565b9050919050565b6000611a5482610d69565b9150611a5f83610d69565b9250828203905081811115611a7757611a7661140c565b5b9291505056fea2646970667358221220b52257c688a6a29a6c43164bafe0e47343c650221b5169312e4ad647fb4bd86f64736f6c63430008130033",
  "linkReferences": {},
  "deployedLinkReferences": {}
}